{
  "_format": "hh-sol-artifact-1",
  "contractName": "TokenExchange",
  "sourceName": "contracts/TokenSwap.sol",
  "abi": [
    {
      "inputs": [],
      "stateMutability": "nonpayable",
      "type": "constructor"
    },
    {
      "inputs": [],
      "name": "NoValue",
      "type": "error"
    },
    {
      "anonymous": false,
      "inputs": [
        {
          "indexed": true,
          "internalType": "address",
          "name": "owner",
          "type": "address"
        },
        {
          "indexed": true,
          "internalType": "address",
          "name": "spender",
          "type": "address"
        },
        {
          "indexed": false,
          "internalType": "uint256",
          "name": "value",
          "type": "uint256"
        }
      ],
      "name": "Approval",
      "type": "event"
    },
    {
      "anonymous": false,
      "inputs": [
        {
          "indexed": true,
          "internalType": "address",
          "name": "previousOwner",
          "type": "address"
        },
        {
          "indexed": true,
          "internalType": "address",
          "name": "newOwner",
          "type": "address"
        }
      ],
      "name": "OwnershipTransferred",
      "type": "event"
    },
    {
      "anonymous": false,
      "inputs": [
        {
          "indexed": true,
          "internalType": "address",
          "name": "from",
          "type": "address"
        },
        {
          "indexed": true,
          "internalType": "address",
          "name": "to",
          "type": "address"
        },
        {
          "indexed": false,
          "internalType": "uint256",
          "name": "value",
          "type": "uint256"
        }
      ],
      "name": "Transfer",
      "type": "event"
    },
    {
      "inputs": [
        {
          "internalType": "address",
          "name": "owner",
          "type": "address"
        },
        {
          "internalType": "address",
          "name": "spender",
          "type": "address"
        }
      ],
      "name": "allowance",
      "outputs": [
        {
          "internalType": "uint256",
          "name": "",
          "type": "uint256"
        }
      ],
      "stateMutability": "view",
      "type": "function"
    },
    {
      "inputs": [
        {
          "internalType": "address",
          "name": "spender",
          "type": "address"
        },
        {
          "internalType": "uint256",
          "name": "amount",
          "type": "uint256"
        }
      ],
      "name": "approve",
      "outputs": [
        {
          "internalType": "bool",
          "name": "",
          "type": "bool"
        }
      ],
      "stateMutability": "nonpayable",
      "type": "function"
    },
    {
      "inputs": [
        {
          "internalType": "address",
          "name": "account",
          "type": "address"
        }
      ],
      "name": "balanceOf",
      "outputs": [
        {
          "internalType": "uint256",
          "name": "",
          "type": "uint256"
        }
      ],
      "stateMutability": "view",
      "type": "function"
    },
    {
      "inputs": [
        {
          "internalType": "uint256",
          "name": "amount",
          "type": "uint256"
        }
      ],
      "name": "burn",
      "outputs": [],
      "stateMutability": "nonpayable",
      "type": "function"
    },
    {
      "inputs": [
        {
          "internalType": "address",
          "name": "account",
          "type": "address"
        },
        {
          "internalType": "uint256",
          "name": "amount",
          "type": "uint256"
        }
      ],
      "name": "burnFrom",
      "outputs": [],
      "stateMutability": "nonpayable",
      "type": "function"
    },
    {
      "inputs": [],
      "name": "decimals",
      "outputs": [
        {
          "internalType": "uint8",
          "name": "",
          "type": "uint8"
        }
      ],
      "stateMutability": "view",
      "type": "function"
    },
    {
      "inputs": [
        {
          "internalType": "address",
          "name": "spender",
          "type": "address"
        },
        {
          "internalType": "uint256",
          "name": "subtractedValue",
          "type": "uint256"
        }
      ],
      "name": "decreaseAllowance",
      "outputs": [
        {
          "internalType": "bool",
          "name": "",
          "type": "bool"
        }
      ],
      "stateMutability": "nonpayable",
      "type": "function"
    },
    {
      "inputs": [],
      "name": "depositCollateral",
      "outputs": [],
      "stateMutability": "payable",
      "type": "function"
    },
    {
      "inputs": [
        {
          "internalType": "address",
          "name": "spender",
          "type": "address"
        },
        {
          "internalType": "uint256",
          "name": "addedValue",
          "type": "uint256"
        }
      ],
      "name": "increaseAllowance",
      "outputs": [
        {
          "internalType": "bool",
          "name": "",
          "type": "bool"
        }
      ],
      "stateMutability": "nonpayable",
      "type": "function"
    },
    {
      "inputs": [],
      "name": "name",
      "outputs": [
        {
          "internalType": "string",
          "name": "",
          "type": "string"
        }
      ],
      "stateMutability": "view",
      "type": "function"
    },
    {
      "inputs": [],
      "name": "owner",
      "outputs": [
        {
          "internalType": "address",
          "name": "",
          "type": "address"
        }
      ],
      "stateMutability": "view",
      "type": "function"
    },
    {
      "inputs": [],
      "name": "proxyAddress",
      "outputs": [
        {
          "internalType": "address",
          "name": "",
          "type": "address"
        }
      ],
      "stateMutability": "view",
      "type": "function"
    },
    {
      "inputs": [],
      "name": "readDataFeed",
      "outputs": [
        {
          "internalType": "uint256",
          "name": "price",
          "type": "uint256"
        },
        {
          "internalType": "uint256",
          "name": "timestamp",
          "type": "uint256"
        }
      ],
      "stateMutability": "view",
      "type": "function"
    },
    {
      "inputs": [
        {
          "internalType": "uint256",
          "name": "_amount",
          "type": "uint256"
        }
      ],
      "name": "reclaimEth",
      "outputs": [],
      "stateMutability": "nonpayable",
      "type": "function"
    },
    {
      "inputs": [],
      "name": "renounceOwnership",
      "outputs": [],
      "stateMutability": "nonpayable",
      "type": "function"
    },
    {
      "inputs": [
        {
          "internalType": "address",
          "name": "_proxyAddress",
          "type": "address"
        }
      ],
      "name": "setProxyAddress",
      "outputs": [],
      "stateMutability": "nonpayable",
      "type": "function"
    },
    {
      "inputs": [],
      "name": "symbol",
      "outputs": [
        {
          "internalType": "string",
          "name": "",
          "type": "string"
        }
      ],
      "stateMutability": "view",
      "type": "function"
    },
    {
      "inputs": [],
      "name": "totalSupply",
      "outputs": [
        {
          "internalType": "uint256",
          "name": "",
          "type": "uint256"
        }
      ],
      "stateMutability": "view",
      "type": "function"
    },
    {
      "inputs": [
        {
          "internalType": "address",
          "name": "to",
          "type": "address"
        },
        {
          "internalType": "uint256",
          "name": "amount",
          "type": "uint256"
        }
      ],
      "name": "transfer",
      "outputs": [
        {
          "internalType": "bool",
          "name": "",
          "type": "bool"
        }
      ],
      "stateMutability": "nonpayable",
      "type": "function"
    },
    {
      "inputs": [
        {
          "internalType": "address",
          "name": "from",
          "type": "address"
        },
        {
          "internalType": "address",
          "name": "to",
          "type": "address"
        },
        {
          "internalType": "uint256",
          "name": "amount",
          "type": "uint256"
        }
      ],
      "name": "transferFrom",
      "outputs": [
        {
          "internalType": "bool",
          "name": "",
          "type": "bool"
        }
      ],
      "stateMutability": "nonpayable",
      "type": "function"
    },
    {
      "inputs": [
        {
          "internalType": "address",
          "name": "newOwner",
          "type": "address"
        }
      ],
      "name": "transferOwnership",
      "outputs": [],
      "stateMutability": "nonpayable",
      "type": "function"
    }
  ],
  "bytecode": "0x60806040523480156200001157600080fd5b5060405180604001604052806006815260200165537461626c6560d01b8152506040518060400160405280600381526020016253544160e81b81525081600390816200005e91906200018b565b5060046200006d82826200018b565b5050506200008a620000846200009060201b60201c565b62000094565b62000257565b3390565b600580546001600160a01b038381166001600160a01b0319831681179093556040519116919082907f8be0079c531659141344cd1fd0a4f28419497f9722a3daafe3b4186f6b6457e090600090a35050565b634e487b7160e01b600052604160045260246000fd5b600181811c908216806200011157607f821691505b6020821081036200013257634e487b7160e01b600052602260045260246000fd5b50919050565b601f8211156200018657600081815260208120601f850160051c81016020861015620001615750805b601f850160051c820191505b8181101562000182578281556001016200016d565b5050505b505050565b81516001600160401b03811115620001a757620001a7620000e6565b620001bf81620001b88454620000fc565b8462000138565b602080601f831160018114620001f75760008415620001de5750858301515b600019600386901b1c1916600185901b17855562000182565b600085815260208120601f198616915b82811015620002285788860151825594840194600190910190840162000207565b5085821015620002475787850151600019600388901b60f8161c191681555b5050505050600190811b01905550565b6110a480620002676000396000f3fe60806040526004361061012a5760003560e01c806370a08231116100ab57806395d89b411161006f57806395d89b411461033a578063a457c2d71461034f578063a9059cbb1461036f578063be9b3e8a1461038f578063dd62ed3e146103af578063f2fde38b146103cf57600080fd5b806370a0823114610287578063715018a6146102bd57806379cc6790146102d257806380eb9be6146102f25780638da5cb5b1461031c57600080fd5b8063313ce567116100f2578063313ce56714610201578063395093511461021d57806342966c681461023d57806346a7dadc1461025f5780636f7581401461027f57600080fd5b806306fdde031461012f578063095ea7b31461015a57806318160ddd1461018a57806323b872dd146101a957806323f5c02d146101c9575b600080fd5b34801561013b57600080fd5b506101446103ef565b6040516101519190610e4b565b60405180910390f35b34801561016657600080fd5b5061017a610175366004610eb5565b610481565b6040519015158152602001610151565b34801561019657600080fd5b506002545b604051908152602001610151565b3480156101b557600080fd5b5061017a6101c4366004610edf565b61049b565b3480156101d557600080fd5b506006546101e9906001600160a01b031681565b6040516001600160a01b039091168152602001610151565b34801561020d57600080fd5b5060405160128152602001610151565b34801561022957600080fd5b5061017a610238366004610eb5565b6104bf565b34801561024957600080fd5b5061025d610258366004610f1b565b6104e1565b005b34801561026b57600080fd5b5061025d61027a366004610f34565b6104ee565b61025d610518565b34801561029357600080fd5b5061019b6102a2366004610f34565b6001600160a01b031660009081526020819052604090205490565b3480156102c957600080fd5b5061025d610579565b3480156102de57600080fd5b5061025d6102ed366004610eb5565b61058d565b3480156102fe57600080fd5b506103076105a6565b60408051928352602083019190915201610151565b34801561032857600080fd5b506005546001600160a01b03166101e9565b34801561034657600080fd5b5061014461063f565b34801561035b57600080fd5b5061017a61036a366004610eb5565b61064e565b34801561037b57600080fd5b5061017a61038a366004610eb5565b6106ce565b34801561039b57600080fd5b5061025d6103aa366004610f1b565b6106dc565b3480156103bb57600080fd5b5061019b6103ca366004610f56565b6107cb565b3480156103db57600080fd5b5061025d6103ea366004610f34565b6107f6565b6060600380546103fe90610f89565b80601f016020809104026020016040519081016040528092919081815260200182805461042a90610f89565b80156104775780601f1061044c57610100808354040283529160200191610477565b820191906000526020600020905b81548152906001019060200180831161045a57829003601f168201915b5050505050905090565b60003361048f81858561086c565b60019150505b92915050565b6000336104a9858285610990565b6104b4858585610a0a565b506001949350505050565b60003361048f8185856104d283836107cb565b6104dc9190610fd9565b61086c565b6104eb3382610bae565b50565b6104f6610ce0565b600680546001600160a01b0319166001600160a01b0392909216919091179055565b346000036105395760405163f2365b5b60e01b815260040160405180910390fd5b6000806105446105a6565b90925090506000670de0b6b3a764000061055e8434610fec565b6105689190611003565b90506105743382610d3a565b505050565b610581610ce0565b61058b6000610df9565b565b610598823383610990565b6105a28282610bae565b5050565b600080600080600660009054906101000a90046001600160a01b03166001600160a01b03166357de26a46040518163ffffffff1660e01b81526004016040805180830381865afa1580156105fe573d6000803e3d6000fd5b505050506040513d601f19601f820116820180604052508101906106229190611025565b6001600160e01b039091169563ffffffff91909116945092505050565b6060600480546103fe90610f89565b6000338161065c82866107cb565b9050838110156106c15760405162461bcd60e51b815260206004820152602560248201527f45524332303a2064656372656173656420616c6c6f77616e63652062656c6f77604482015264207a65726f60d81b60648201526084015b60405180910390fd5b6104b4828686840361086c565b60003361048f818585610a0a565b806000036106fd5760405163f2365b5b60e01b815260040160405180910390fd5b6000806107086105a6565b909250905060008261072285670de0b6b3a7640000610fec565b61072c9190611003565b90506107383385610bae565b604051600090339083908381818185875af1925050503d806000811461077a576040519150601f19603f3d011682016040523d82523d6000602084013e61077f565b606091505b50509050806107c45760405162461bcd60e51b815260206004820152601160248201527008cc2d2d8cac840e4cacceadcc840cae8d607b1b60448201526064016106b8565b5050505050565b6001600160a01b03918216600090815260016020908152604080832093909416825291909152205490565b6107fe610ce0565b6001600160a01b0381166108635760405162461bcd60e51b815260206004820152602660248201527f4f776e61626c653a206e6577206f776e657220697320746865207a65726f206160448201526564647265737360d01b60648201526084016106b8565b6104eb81610df9565b6001600160a01b0383166108ce5760405162461bcd60e51b8152602060048201526024808201527f45524332303a20617070726f76652066726f6d20746865207a65726f206164646044820152637265737360e01b60648201526084016106b8565b6001600160a01b03821661092f5760405162461bcd60e51b815260206004820152602260248201527f45524332303a20617070726f766520746f20746865207a65726f206164647265604482015261737360f01b60648201526084016106b8565b6001600160a01b0383811660008181526001602090815260408083209487168084529482529182902085905590518481527f8c5be1e5ebec7d5bd14f71427d1e84f3dd0314c0f7b2291e5b200ac8c7c3b925910160405180910390a3505050565b600061099c84846107cb565b90506000198114610a0457818110156109f75760405162461bcd60e51b815260206004820152601d60248201527f45524332303a20696e73756666696369656e7420616c6c6f77616e636500000060448201526064016106b8565b610a04848484840361086c565b50505050565b6001600160a01b038316610a6e5760405162461bcd60e51b815260206004820152602560248201527f45524332303a207472616e736665722066726f6d20746865207a65726f206164604482015264647265737360d81b60648201526084016106b8565b6001600160a01b038216610ad05760405162461bcd60e51b815260206004820152602360248201527f45524332303a207472616e7366657220746f20746865207a65726f206164647260448201526265737360e81b60648201526084016106b8565b6001600160a01b03831660009081526020819052604090205481811015610b485760405162461bcd60e51b815260206004820152602660248201527f45524332303a207472616e7366657220616d6f756e7420657863656564732062604482015265616c616e636560d01b60648201526084016106b8565b6001600160a01b03848116600081815260208181526040808320878703905593871680835291849020805487019055925185815290927fddf252ad1be2c89b69c2b068fc378daa952ba7f163c4a11628f55a4df523b3ef910160405180910390a3610a04565b6001600160a01b038216610c0e5760405162461bcd60e51b815260206004820152602160248201527f45524332303a206275726e2066726f6d20746865207a65726f206164647265736044820152607360f81b60648201526084016106b8565b6001600160a01b03821660009081526020819052604090205481811015610c825760405162461bcd60e51b815260206004820152602260248201527f45524332303a206275726e20616d6f756e7420657863656564732062616c616e604482015261636560f01b60648201526084016106b8565b6001600160a01b0383166000818152602081815260408083208686039055600280548790039055518581529192917fddf252ad1be2c89b69c2b068fc378daa952ba7f163c4a11628f55a4df523b3ef910160405180910390a3505050565b6005546001600160a01b0316331461058b5760405162461bcd60e51b815260206004820181905260248201527f4f776e61626c653a2063616c6c6572206973206e6f7420746865206f776e657260448201526064016106b8565b6001600160a01b038216610d905760405162461bcd60e51b815260206004820152601f60248201527f45524332303a206d696e7420746f20746865207a65726f20616464726573730060448201526064016106b8565b8060026000828254610da29190610fd9565b90915550506001600160a01b038216600081815260208181526040808320805486019055518481527fddf252ad1be2c89b69c2b068fc378daa952ba7f163c4a11628f55a4df523b3ef910160405180910390a35050565b600580546001600160a01b038381166001600160a01b0319831681179093556040519116919082907f8be0079c531659141344cd1fd0a4f28419497f9722a3daafe3b4186f6b6457e090600090a35050565b600060208083528351808285015260005b81811015610e7857858101830151858201604001528201610e5c565b506000604082860101526040601f19601f8301168501019250505092915050565b80356001600160a01b0381168114610eb057600080fd5b919050565b60008060408385031215610ec857600080fd5b610ed183610e99565b946020939093013593505050565b600080600060608486031215610ef457600080fd5b610efd84610e99565b9250610f0b60208501610e99565b9150604084013590509250925092565b600060208284031215610f2d57600080fd5b5035919050565b600060208284031215610f4657600080fd5b610f4f82610e99565b9392505050565b60008060408385031215610f6957600080fd5b610f7283610e99565b9150610f8060208401610e99565b90509250929050565b600181811c90821680610f9d57607f821691505b602082108103610fbd57634e487b7160e01b600052602260045260246000fd5b50919050565b634e487b7160e01b600052601160045260246000fd5b8082018082111561049557610495610fc3565b808202811582820484141761049557610495610fc3565b60008261102057634e487b7160e01b600052601260045260246000fd5b500490565b6000806040838503121561103857600080fd5b825180601b0b811461104957600080fd5b602084015190925063ffffffff8116811461106357600080fd5b80915050925092905056fea2646970667358221220775ae2e697c45f5692ea8fe03bdcdb276ce0e4dce2a6dacfad29fbd21d356d5064736f6c63430008130033",
  "linkReferences": {},
  "deployedLinkReferences": {}
}