{"contracts/Mocks/MockDapi.sol":{"MockDapiProxy":{"abi":[{"inputs":[],"name":"read","outputs":[{"internalType":"int224","name":"_value","type":"int224"},{"internalType":"uint32","name":"_timestamp","type":"uint32"}],"stateMutability":"view","type":"function"},{"inputs":[{"internalType":"int224","name":"_value","type":"int224"},{"internalType":"uint32","name":"_timestamp","type":"uint32"}],"name":"setDapiValues","outputs":[],"stateMutability":"nonpayable","type":"function"},{"inputs":[],"name":"timestamp","outputs":[{"internalType":"uint32","name":"","type":"uint32"}],"stateMutability":"view","type":"function"},{"inputs":[],"name":"value","outputs":[{"internalType":"int224","name":"","type":"int224"}],"stateMutability":"view","type":"function"}],"evm":{"bytecode":{"linkReferences":{},"object":"608060405234801561001057600080fd5b50610174806100206000396000f3fe608060405234801561001057600080fd5b506004361061004c5760003560e01c80633fa4f2451461005157806357de26a414610076578063b80777ea1461009d578063f2128880146100c9575b600080fd5b60005461005e90601b0b81565b604051601b9190910b81526020015b60405180910390f35b60005460408051601b83900b8152600160e01b90920463ffffffff1660208301520161006d565b6000546100b490600160e01b900463ffffffff1681565b60405163ffffffff909116815260200161006d565b6100f46100d73660046100f6565b63ffffffff16600160e01b026001600160e01b0390911617600055565b005b6000806040838503121561010957600080fd5b823580601b0b811461011a57600080fd5b9150602083013563ffffffff8116811461013357600080fd5b80915050925092905056fea2646970667358221220fa9b6b702a9891564fe3495430e8ba9570e7c0c6d94786d353674659c976557c64736f6c63430008130033","opcodes":"PUSH1 0x80 PUSH1 0x40 MSTORE CALLVALUE DUP1 ISZERO PUSH2 0x10 JUMPI PUSH1 0x0 DUP1 REVERT JUMPDEST POP PUSH2 0x174 DUP1 PUSH2 0x20 PUSH1 0x0 CODECOPY PUSH1 0x0 RETURN INVALID PUSH1 0x80 PUSH1 0x40 MSTORE CALLVALUE DUP1 ISZERO PUSH2 0x10 JUMPI PUSH1 0x0 DUP1 REVERT JUMPDEST POP PUSH1 0x4 CALLDATASIZE LT PUSH2 0x4C JUMPI PUSH1 0x0 CALLDATALOAD PUSH1 0xE0 SHR DUP1 PUSH4 0x3FA4F245 EQ PUSH2 0x51 JUMPI DUP1 PUSH4 0x57DE26A4 EQ PUSH2 0x76 JUMPI DUP1 PUSH4 0xB80777EA EQ PUSH2 0x9D JUMPI DUP1 PUSH4 0xF2128880 EQ PUSH2 0xC9 JUMPI JUMPDEST PUSH1 0x0 DUP1 REVERT JUMPDEST PUSH1 0x0 SLOAD PUSH2 0x5E SWAP1 PUSH1 0x1B SIGNEXTEND DUP2 JUMP JUMPDEST PUSH1 0x40 MLOAD PUSH1 0x1B SWAP2 SWAP1 SWAP2 SIGNEXTEND DUP2 MSTORE PUSH1 0x20 ADD JUMPDEST PUSH1 0x40 MLOAD DUP1 SWAP2 SUB SWAP1 RETURN JUMPDEST PUSH1 0x0 SLOAD PUSH1 0x40 DUP1 MLOAD PUSH1 0x1B DUP4 SWAP1 SIGNEXTEND DUP2 MSTORE PUSH1 0x1 PUSH1 0xE0 SHL SWAP1 SWAP3 DIV PUSH4 0xFFFFFFFF AND PUSH1 0x20 DUP4 ADD MSTORE ADD PUSH2 0x6D JUMP JUMPDEST PUSH1 0x0 SLOAD PUSH2 0xB4 SWAP1 PUSH1 0x1 PUSH1 0xE0 SHL SWAP1 DIV PUSH4 0xFFFFFFFF AND DUP2 JUMP JUMPDEST PUSH1 0x40 MLOAD PUSH4 0xFFFFFFFF SWAP1 SWAP2 AND DUP2 MSTORE PUSH1 0x20 ADD PUSH2 0x6D JUMP JUMPDEST PUSH2 0xF4 PUSH2 0xD7 CALLDATASIZE PUSH1 0x4 PUSH2 0xF6 JUMP JUMPDEST PUSH4 0xFFFFFFFF AND PUSH1 0x1 PUSH1 0xE0 SHL MUL PUSH1 0x1 PUSH1 0x1 PUSH1 0xE0 SHL SUB SWAP1 SWAP2 AND OR PUSH1 0x0 SSTORE JUMP JUMPDEST STOP JUMPDEST PUSH1 0x0 DUP1 PUSH1 0x40 DUP4 DUP6 SUB SLT ISZERO PUSH2 0x109 JUMPI PUSH1 0x0 DUP1 REVERT JUMPDEST DUP3 CALLDATALOAD DUP1 PUSH1 0x1B SIGNEXTEND DUP2 EQ PUSH2 0x11A JUMPI PUSH1 0x0 DUP1 REVERT JUMPDEST SWAP2 POP PUSH1 0x20 DUP4 ADD CALLDATALOAD PUSH4 0xFFFFFFFF DUP2 AND DUP2 EQ PUSH2 0x133 JUMPI PUSH1 0x0 DUP1 REVERT JUMPDEST DUP1 SWAP2 POP POP SWAP3 POP SWAP3 SWAP1 POP JUMP INVALID LOG2 PUSH5 0x6970667358 0x22 SLT KECCAK256 STATICCALL SWAP12 PUSH12 0x702A9891564FE3495430E8BA SWAP6 PUSH17 0xE7C0C6D94786D353674659C976557C6473 PUSH16 0x6C634300081300330000000000000000 "},"methodIdentifiers":{"read()":"57de26a4","setDapiValues(int224,uint32)":"f2128880","timestamp()":"b80777ea","value()":"3fa4f245"}}}}}